:020000040000FA
:0400000094EF09F080
:10060000003F065B4F666D7D077F6F777C395E79B3
:1006100071554C44525358414259730102040845E4
:1006200073636F6C6861206F20616E646172206417
:100630006573656A61646F0A70656C6F20746563C9
:100640006C61646F000002BE31EF03F0025007E1FD
:10065000080E015CD8B02FEF03F031EF03F05BEF31
:1006600003F003500410D8B438EF03F03AEF03F06E
:100670004AEF03F001C005F0010E066E052A43EFB4
:1006800003F0D8900636052E41EF03F00650921283
:1006900049EF04F001C005F0010E066E052A53EF84
:1006A00003F0D8900636052E51EF03F00650FF0AEE
:1006B000921649EF04F002BE69EF03F0025007E121
:1006C000100E015CD8B067EF03F069EF03F097EF0D
:1006D00003F003500410D8B470EF03F072EF03F08E
:1006E00084EF03F001C005F0F80E0526010E066E3A
:1006F000052A7DEF03F0D8900636052E7BEF03F038
:100700000650931249EF04F001C005F0F80E0526DB
:10071000010E066E052A8FEF03F0D8900636052EDF
:100720008DEF03F00650FF0A931649EF04F002BE66
:10073000A5EF03F0025007E1180E015CD8B0A3EF5B
:1007400003F0A5EF03F0D3EF03F003500410D8B487
:10075000ACEF03F0AEEF03F0C0EF03F001C005F023
:10076000F00E0526010E066E052AB9EF03F0D890AB
:100770000636052EB7EF03F00650941249EF04F049
:1007800001C005F0F00E0526010E066E052ACBEF1E
:1007900003F0D8900636052EC9EF03F00650FF0A85
:1007A000941649EF04F002BEE1EF03F0025007E1B6
:1007B000200E015CD8B0DFEF03F0E1EF03F00FEFA4
:1007C00004F003500410D8B4E8EF03F0EAEF03F0AC
:1007D000FCEF03F001C005F0E80E0526010E066EE1
:1007E000052AF5EF03F0D8900636052EF3EF03F057
:1007F0000650951249EF04F001C005F0E80E0526F9
:10080000010E066E052A07EF04F0D8900636052E75
:1008100005EF04F00650FF0A951649EF04F002BEFA
:100820001DEF04F0025007E1280E015CD8B01BEF69
:1008300004F01DEF04F049EF04F003500410D8B4A5
:1008400024EF04F026EF04F038EF04F001C005F0C7
:10085000E00E0526010E066E052A31EF04F0D89051
:100860000636052E2FEF04F00650961249EF04F0DD
:1008700001C005F0E00E0526010E066E052A43EFC5
:1008800004F0D8900636052E41EF04F00650FF0A1A
:100890009616120002BE58EF04F0025007E1080E4F
:1008A000015CD8B056EF04F058EF04F082EF04F08A
:1008B00003500410D8B45FEF04F061EF04F071EF5F
:1008C00004F001C005F0010E066E052A6AEF04F07F
:1008D000D8900636052E68EF04F00650801270EFAF
:1008E00005F001C005F0010E066E052A7AEF04F04E
:1008F000D8900636052E78EF04F00650FF0A8016D1
:1009000070EF05F002BE90EF04F0025007E1100E08
:10091000015CD8B08EEF04F090EF04F0BEEF04F06D
:10092000F80E0126FF0E022203500410D8B49BEFEC
:1009300004F09DEF04F0ADEF04F001C005F0010EEE
:10094000066E052AA6EF04F0D8900636052EA4EF11
:1009500004F00650811270EF05F001C005F0010EA1
:10096000066E052AB6EF04F0D8900636052EB4EFD1
:1009700004F00650FF0A811670EF05F002BECCEFBE
:1009800004F0025007E1180E015CD8B0CAEF04F081
:10099000CCEF04F0FAEF04F0F00E0126FF0E022275
:1009A00003500410D8B4D7EF04F0D9EF04F0E9EF06
:1009B00004F001C005F0010E066E052AE2EF04F016
:1009C000D8900636052EE0EF04F00650821270EF44
:1009D00005F001C005F0010E066E052AF2EF04F0E5
:1009E000D8900636052EF0EF04F00650FF0A821666
:1009F00070EF05F002BE08EF05F0025007E1200E8F
:100A0000015CD8B006EF05F008EF05F036EF05F011
:100A1000E80E0126FF0E022203500410D8B413EF93
:100A200005F015EF05F025EF05F001C005F0010E0A
:100A3000066E052A1EEF05F0D8900636052E1CEF2F
:100A400005F00650831270EF05F001C005F0010EAD
:100A5000066E052A2EEF05F0D8900636052E2CEFEF
:100A600005F00650FF0A831670EF05F002BE44EF52
:100A700005F0025007E1280E015CD8B042EF05F006
:100A800044EF05F070EF05F0E00E0126FF0E0222A4
:100A900003500410D8B44FEF05F051EF05F061EFAB
:100AA00005F001C005F0010E066E052A5AEF05F0AB
:100AB000D8900636052E58EF05F00650841270EFD8
:100AC00005F001C005F0010E066E052A6AEF05F07B
:100AD000D8900636052E68EF05F00650FF0A8416FA
:100AE000120002BE7FEF05F0025007E1080E015C24
:100AF000D8B07DEF05F07FEF05F093EF05F001C072
:100B000003F0010E046E032A88EF05F0D890043636
:100B1000032E86EF05F004508014056E0550016E1B
:100B2000026A25EF06F002BEA1EF05F0025007E1D0
:100B3000100E015CD8B09FEF05F0A1EF05F0B7EF04
:100B400005F001C003F0F80E0326010E046E032A1F
:100B5000ACEF05F0D8900436032EAAEF05F0045050
:100B60008114056E0550016E026A25EF06F002BE83
:100B7000C5EF05F0025007E1180E015CD8B0C3EFD5
:100B800005F0C5EF05F0DBEF05F001C003F0F00E56
:100B90000326010E046E032AD0EF05F0D890043628
:100BA000032ECEEF05F004508214056E0550016E41
:100BB000026A25EF06F002BEE9EF05F0025007E1F8
:100BC000200E015CD8B0E7EF05F0E9EF05F0FFEF8C
:100BD00005F001C003F0E80E0326010E046E032A9F
:100BE000F4EF05F0D8900436032EF2EF05F0045030
:100BF0008314056E0550016E026A25EF06F002BEF1
:100C00000DEF06F0025007E1280E015CD8B00BEFA3
:100C100006F00DEF06F023EF06F001C003F0E00E42
:100C20000326010E046E032A18EF06F0D89004364E
:100C3000032E16EF06F004508414056E0550016E65
:100C4000026A25EF06F0016802681200000E1E6EAF
:100C5000000E1D6E000E0E6E000E0D6E0EBE3AEFF3
:100C600006F00E5009E1050E0D5CD8A03AEF06F033
:100C70003CEF06F03EEF06F09FEF06F00DC00AF0E5
:100C8000030E0A26010E0B6E000E0C6E0A2A4CEFA4
:100C900006F0D8900B360C360A2E49EF06F00BC042
:100CA00007F00CC008F0A1EC08F0000E026E0A0E6E
:100CB000016E71EC05F001500210D8B462EF06F03D
:100CC00064EF06F077EF06F00DC00AF0010E0B6E30
:100CD000000E0C6E0A2A70EF06F0D8900B360C3618
:100CE0000A2E6DEF06F00B501D120C501E12000E56
:100CF000026E090E016E71EC05F001500210D8B4BD
:100D000084EF06F086EF06F09BEF06F00DC00AF0C8
:100D1000050E0A26010E0B6E000E0C6E0A2A94EFC9
:100D200006F0D8900B360C360A2E91EF06F00B50D9
:100D30001D120C501E120D4A0E2A2EEF06F01D50E9
:100D40001B1807E11E501C18D8A4A9EF06F0ABEF42
:100D500006F0AEEF06F02106B4EF06F0010E216EAC
:100D60001DC01BF01EC01CF02150D8A4BAEF06F025
:100D7000BCEF06F0C0EF06F01BC01FF01CC020F057
:100D80001200000E1A6E010E196E000E956E836829
:100D900057EC07F01F0E0F6E060E106EB1EC07F049
:100DA000000E026E180E016E000E046E000E036E31
:100DB00023EC03F0E9EC08F008EC09F0000E086EF3
:100DC000000E076EA1EC08F0000E026E180E016E08
:100DD000000E046E010E036E4AEC04F0010E19249D
:100DE000F66E060E1A20F76E0800F550076E086AB8
:100DF000A1EC08F0FF0E156EFF0E166E19C017F06D
:100E00001AC018F015501726165018221B0E17245A
:100E1000F66E060E1820F76E0800F5CF83FF050E5C
:100E20003FEC08F026EC06F003EC08F00009D8B41B
:100E30001CEF07F01EEF07F032EF07F0A1EC09F00E
:100E400001C019F002C01AF0040E19181A10D8A423
:100E50002CEF07F02EEF07F032EF07F0000E1A6EBE
:100E6000030E196E19041A10D8B439EF07F03BEFCE
:100E700007F0DEEF06F0020E19181A10D8B443EF8F
:100E800007F045EF07F0DEEF06F0030E19181A1011
:100E9000D8B44DEF07F04FEF07F0DEEF06F0000E8D
:100EA0001A6E040E196EDEEF06F000EF00F0000E71
:100EB000026E1C0E016E000E046E000E036E23EC1B
:100EC00003F0000E026E1D0E016E000E046E000E89
:100ED000036E23EC03F0E9EC08F0000E026E0F0E37
:100EE000016E21EC09F0000E0B6E000E0A6E030E6F
:100EF00063EC09F0000E026E050E016E21EC09F0A4
:100F0000000E0B6E000E0A6E030E63EC09F0000E6D
:100F1000026EA00E016EA6EC09F0000E0B6E000E24
:100F20000A6E030E63EC09F0000E026EA00E016E55
:100F3000A6EC09F0000E0B6E000E0A6E020E63ECBA
:100F400009F0000E026E0A0E016E21EC09F0280E67
:100F500085EC09F00C0E85EC09F0010E85EC09F02A
:100F60001200000E146E000E136E13500F24116E3B
:100F700014501020126E11C0F6FF12C0F7FF0800C7
:100F8000F5500009D8A4C7EF07F0C9EF07F0CBEF81
:100F900007F002EF08F013500F24116E14501020C8
:100FA000126E11C0F6FF12C0F7FF0800F5500A0AD2
:100FB000D8A4DDEF07F0DFEF07F0E4EF07F0C00E95
:100FC00085EC09F0F2EF07F013500F24116E145066
:100FD0001020126E11C0F6FF12C0F7FF0800F55086
:100FE00076EC09F0134A142A14BE00EF08F01450EE
:100FF00009E1280E135CD8A000EF08F002EF08F01A
:10100000B5EF07F01200000E056E000E046E04C06E
:1010100001F0010E026E000E036E012A13EF08F0BC
:10102000D89002360336012E10EF08F01F5002163A
:101030002050031602500310D8B421EF08F023EF1C
:1010400008F02DEF08F0110E0424F66E060E0520B0
:10105000F76E0800F5503EEF08F0044A052A05BE79
:101060003BEF08F0055009E10A0E045CD8A03BEF05
:1010700008F03DEF08F007EF08F0000E1200016ED7
:10108000000E036E000E026E66EF08F0000E046E96
:10109000280E04644EEF08F050EF08F052EF08F00D
:1010A00064EF08F0000E056E020E05645AEF08F0BA
:1010B0005CEF08F05EEF08F061EF08F0052A54EFEE
:1010C00008F0042A48EF08F0024A032A0150190DDB
:1010D000F350025CF4500358D8A071EF08F073EF9E
:1010E00008F046EF08F012000D6E0DC00CF00C3A3F
:1010F0000F0E0C160C50076E086AA1EC08F0000EDB
:10110000026E1D0E016E0AC003F00BC004F04AEC23
:1011100004F0C8EC08F00DC00CF00F0E0C160C50CB
:10112000076E086AA1EC08F0000E026E1D0E016E3B
:101130000AC003F00BC004F04AEC04F0C8EC08F05D
:101140001200000E026E080E016E000E046E000EFC
:10115000036E4AEC04F0000E096E000E026E1E0EC5
:10116000016E800E0714036E046A4AEC04F04EEC24
:1011700009F0D89007360836092A070E0964C3EF2C
:1011800008F0C5EF08F0ADEF08F039EC09F01200F7
:10119000000E026E1C0E016E000E046E010E036E38
:1011A0004AEC04F0000E026E050E016EA6EC09F08A
:1011B000000E026E1C0E016E000E046E000E036E19
:1011C0004AEC04F0000E026E050E016EA6EC09F06A
:1011D0001200000E026E1F0E016E000E046E000E55
:1011E000036E23EC03F0000E026E080E016E000E7B
:1011F000046E000E036E23EC03F0000E026E1E0E52
:10120000016E000E046E000E036E23EC03F012005C
:10121000E9EC08F0000E026E0A0E016E000E046E7C
:10122000010E036E23EC03F0000E026E090E016E38
:10123000000E046E010E036E23EC03F00C0EC16E63
:101240001200000E056E000E046E29EF09F0044A2C
:10125000052A0150045C0550800A036E0250800A82
:101260000358D8A036EF09F038EF09F027EF09F05E
:101270001200000E026E1F0E016E000E046E010EB3
:10128000036E4AEC04F0000E026E1F0E016E000E9B
:10129000046E000E036E4AEC04F01200000E026EA3
:1012A000080E016E000E046E010E036E4AEC04F08F
:1012B000000E026E080E016E000E046E000E036E2C
:1012C0004AEC04F012000C6E0CC007F0086AA1ECA6
:1012D00008F0000E026E1D0E016E0AC003F00BC076
:1012E00004F04AEC04F0C8EC08F012000E6E000E98
:1012F0000B6E010E0A6E0E5074EC08F0000E026EBA
:10130000500E016EA6EC09F012000E6E000E0B6E70
:10131000000E0A6E0E5074EC08F0000E026E020E03
:10132000016E21EC09F0120000EE1BF0070EEE6AD0
:10133000E806FDE1000EF86E060EF76E0001C1EF43
:0E13400006F01FC001F020C002F012001200E3
:020000040020DA
:08000000FFFFFFFFFFFFFFFF00
:020000040030CA
:0E000000FF027100FF8380FF0FC00FE00F4072
:00000001FF
